{"abi":[{"type":"constructor","inputs":[{"name":"boontySetWhitelist","type":"address","internalType":"address"},{"name":"supply","type":"uint256","internalType":"uint256"},{"name":"brandAddress","type":"address","internalType":"address"},{"name":"brandName","type":"string","internalType":"string"},{"name":"activityName","type":"string","internalType":"string"},{"name":"initialUri","type":"string","internalType":"string"},{"name":"activityStart","type":"uint16","internalType":"uint16"},{"name":"hoursAvailable","type":"uint16","internalType":"uint16"}],"stateMutability":"nonpayable"},{"type":"function","name":"activityFinished","inputs":[],"outputs":[],"stateMutability":"nonpayable"},{"type":"function","name":"balanceOf","inputs":[{"name":"account","type":"address","internalType":"address"},{"name":"id","type":"uint256","internalType":"uint256"}],"outputs":[{"name":"","type":"uint256","internalType":"uint256"}],"stateMutability":"view"},{"type":"function","name":"balanceOfBatch","inputs":[{"name":"accounts","type":"address[]","internalType":"address[]"},{"name":"ids","type":"uint256[]","internalType":"uint256[]"}],"outputs":[{"name":"","type":"uint256[]","internalType":"uint256[]"}],"stateMutability":"view"},{"type":"function","name":"checkInWhitelist","inputs":[{"name":"user","type":"address","internalType":"address"},{"name":"proof","type":"bytes32[]","internalType":"bytes32[]"}],"outputs":[{"name":"","type":"bool","internalType":"bool"}],"stateMutability":"view"},{"type":"function","name":"getActivityFinished","inputs":[],"outputs":[{"name":"","type":"bool","internalType":"bool"}],"stateMutability":"view"},{"type":"function","name":"getActivityName","inputs":[],"outputs":[{"name":"","type":"string","internalType":"string"}],"stateMutability":"view"},{"type":"function","name":"getActivityStart","inputs":[],"outputs":[{"name":"","type":"uint256","internalType":"uint256"}],"stateMutability":"view"},{"type":"function","name":"getBoontySetWhitelist","inputs":[],"outputs":[{"name":"","type":"address","internalType":"address"}],"stateMutability":"view"},{"type":"function","name":"getBrandName","inputs":[],"outputs":[{"name":"","type":"string","internalType":"string"}],"stateMutability":"view"},{"type":"function","name":"getHoursAvailable","inputs":[],"outputs":[{"name":"","type":"uint256","internalType":"uint256"}],"stateMutability":"view"},{"type":"function","name":"getMerkleRoot","inputs":[],"outputs":[{"name":"","type":"bytes32","internalType":"bytes32"}],"stateMutability":"view"},{"type":"function","name":"isApprovedForAll","inputs":[{"name":"account","type":"address","internalType":"address"},{"name":"operator","type":"address","internalType":"address"}],"outputs":[{"name":"","type":"bool","internalType":"bool"}],"stateMutability":"view"},{"type":"function","name":"owner","inputs":[],"outputs":[{"name":"","type":"address","internalType":"address"}],"stateMutability":"view"},{"type":"function","name":"renounceOwnership","inputs":[],"outputs":[],"stateMutability":"nonpayable"},{"type":"function","name":"safeBatchTransferFrom","inputs":[{"name":"from","type":"address","internalType":"address"},{"name":"to","type":"address","internalType":"address"},{"name":"ids","type":"uint256[]","internalType":"uint256[]"},{"name":"values","type":"uint256[]","internalType":"uint256[]"},{"name":"data","type":"bytes","internalType":"bytes"}],"outputs":[],"stateMutability":"nonpayable"},{"type":"function","name":"safeTransferFrom","inputs":[{"name":"from","type":"address","internalType":"address"},{"name":"to","type":"address","internalType":"address"},{"name":"id","type":"uint256","internalType":"uint256"},{"name":"value","type":"uint256","internalType":"uint256"},{"name":"data","type":"bytes","internalType":"bytes"}],"outputs":[],"stateMutability":"nonpayable"},{"type":"function","name":"setApprovalForAll","inputs":[{"name":"operator","type":"address","internalType":"address"},{"name":"approved","type":"bool","internalType":"bool"}],"outputs":[],"stateMutability":"nonpayable"},{"type":"function","name":"setMerkleRoot","inputs":[{"name":"merkleRoot","type":"bytes32","internalType":"bytes32"}],"outputs":[],"stateMutability":"nonpayable"},{"type":"function","name":"supportsInterface","inputs":[{"name":"interfaceId","type":"bytes4","internalType":"bytes4"}],"outputs":[{"name":"","type":"bool","internalType":"bool"}],"stateMutability":"view"},{"type":"function","name":"transferOwnership","inputs":[{"name":"newOwner","type":"address","internalType":"address"}],"outputs":[],"stateMutability":"nonpayable"},{"type":"function","name":"uri","inputs":[{"name":"","type":"uint256","internalType":"uint256"}],"outputs":[{"name":"","type":"string","internalType":"string"}],"stateMutability":"view"},{"type":"function","name":"withdrawPrize","inputs":[{"name":"user","type":"address","internalType":"address"},{"name":"proof","type":"bytes32[]","internalType":"bytes32[]"}],"outputs":[],"stateMutability":"nonpayable"},{"type":"event","name":"ApprovalForAll","inputs":[{"name":"account","type":"address","indexed":true,"internalType":"address"},{"name":"operator","type":"address","indexed":true,"internalType":"address"},{"name":"approved","type":"bool","indexed":false,"internalType":"bool"}],"anonymous":false},{"type":"event","name":"ClaimedBy","inputs":[{"name":"user","type":"address","indexed":false,"internalType":"address"},{"name":"timestamp","type":"uint256","indexed":false,"internalType":"uint256"}],"anonymous":false},{"type":"event","name":"OwnershipTransferred","inputs":[{"name":"previousOwner","type":"address","indexed":true,"internalType":"address"},{"name":"newOwner","type":"address","indexed":true,"internalType":"address"}],"anonymous":false},{"type":"event","name":"TransferBatch","inputs":[{"name":"operator","type":"address","indexed":true,"internalType":"address"},{"name":"from","type":"address","indexed":true,"internalType":"address"},{"name":"to","type":"address","indexed":true,"internalType":"address"},{"name":"ids","type":"uint256[]","indexed":false,"internalType":"uint256[]"},{"name":"values","type":"uint256[]","indexed":false,"internalType":"uint256[]"}],"anonymous":false},{"type":"event","name":"TransferSingle","inputs":[{"name":"operator","type":"address","indexed":true,"internalType":"address"},{"name":"from","type":"address","indexed":true,"internalType":"address"},{"name":"to","type":"address","indexed":true,"internalType":"address"},{"name":"id","type":"uint256","indexed":false,"internalType":"uint256"},{"name":"value","type":"uint256","indexed":false,"internalType":"uint256"}],"anonymous":false},{"type":"event","name":"URI","inputs":[{"name":"value","type":"string","indexed":false,"internalType":"string"},{"name":"id","type":"uint256","indexed":true,"internalType":"uint256"}],"anonymous":false},{"type":"error","name":"ERC1155InsufficientBalance","inputs":[{"name":"sender","type":"address","internalType":"address"},{"name":"balance","type":"uint256","internalType":"uint256"},{"name":"needed","type":"uint256","internalType":"uint256"},{"name":"tokenId","type":"uint256","internalType":"uint256"}]},{"type":"error","name":"ERC1155InvalidApprover","inputs":[{"name":"approver","type":"address","internalType":"address"}]},{"type":"error","name":"ERC1155InvalidArrayLength","inputs":[{"name":"idsLength","type":"uint256","internalType":"uint256"},{"name":"valuesLength","type":"uint256","internalType":"uint256"}]},{"type":"error","name":"ERC1155InvalidOperator","inputs":[{"name":"operator","type":"address","internalType":"address"}]},{"type":"error","name":"ERC1155InvalidReceiver","inputs":[{"name":"receiver","type":"address","internalType":"address"}]},{"type":"error","name":"ERC1155InvalidSender","inputs":[{"name":"sender","type":"address","internalType":"address"}]},{"type":"error","name":"ERC1155MissingApprovalForAll","inputs":[{"name":"operator","type":"address","internalType":"address"},{"name":"owner","type":"address","internalType":"address"}]},{"type":"error","name":"OwnableInvalidOwner","inputs":[{"name":"owner","type":"address","internalType":"address"}]},{"type":"error","name":"OwnableUnauthorizedAccount","inputs":[{"name":"account","type":"address","internalType":"address"}]}],"bytecode":{"object":"0x60e06040523480156200001157600080fd5b506040516200255c3803806200255c83398101604081905262000034916200079b565b8583620000418162000112565b506001600160a01b0381166200007257604051631e4fbdf760e01b8152600060048201526024015b60405180910390fd5b6200007d8162000124565b506001600160a01b03881660805260056200009986826200090d565b506006620000a885826200090d565b50620000bb61ffff8316610e10620009ef565b620000c7904262000a0f565b60a05261ffff811660c052604080518082019091526009815268199a5c9cdd135a5b9d60ba1b6020820152620001049030906000908a9062000176565b505050505050505062000bbc565b60026200012082826200090d565b5050565b600380546001600160a01b038381166001600160a01b0319831681179093556040519116919082907f8be0079c531659141344cd1fd0a4f28419497f9722a3daafe3b4186f6b6457e090600090a35050565b6001600160a01b038416620001a257604051632bfa23e760e11b81526000600482015260240162000069565b60408051600180825260208201869052818301908152606082018590526080820190925290620001d7600087848487620001df565b505050505050565b620001ed8585858562000242565b6001600160a01b038416156200023b57825133906001036200022b57602084810151908401516200022383898985858962000470565b5050620001d7565b620001d7818787878787620005aa565b5050505050565b8051825114620002735781518151604051635b05999160e01b81526004810192909252602482015260440162000069565b3360005b83518110156200038c576020818102858101820151908501909101516001600160a01b038816156200032e576000828152602081815260408083206001600160a01b038c1684529091529020548181101562000307576040516303dee4c560e01b81526001600160a01b038a16600482015260248101829052604481018390526064810184905260840162000069565b6000838152602081815260408083206001600160a01b038d16845290915290209082900390555b6001600160a01b0387161562000376576000828152602081815260408083206001600160a01b038b168452909152812080548392906200037090849062000a0f565b90915550505b505080620003849062000a25565b905062000277565b508251600103620004105760208301516000906020840151909150856001600160a01b0316876001600160a01b0316846001600160a01b03167fc3d58168c5ae7397731d063d5bbf3d657854427343f4c083240f7aacaa2d0f62858560405162000400929190918252602082015260400190565b60405180910390a450506200023b565b836001600160a01b0316856001600160a01b0316826001600160a01b03167f4a39dc06d4c0dbc64b70af90fd698a233a518aa5d07e595d983b8c0526c8f7fb86866040516200046192919062000a7e565b60405180910390a45050505050565b6001600160a01b0384163b15620001d75760405163f23a6e6160e01b81526001600160a01b0385169063f23a6e6190620004b7908990899088908890889060040162000ade565b6020604051808303816000875af1925050508015620004f5575060408051601f3d908101601f19168201909252620004f29181019062000b25565b60015b62000563573d80801562000526576040519150601f19603f3d011682016040523d82523d6000602084013e6200052b565b606091505b5080516000036200055b57604051632bfa23e760e11b81526001600160a01b038616600482015260240162000069565b805181602001fd5b6001600160e01b0319811663f23a6e6160e01b14620005a157604051632bfa23e760e11b81526001600160a01b038616600482015260240162000069565b50505050505050565b6001600160a01b0384163b15620001d75760405163bc197c8160e01b81526001600160a01b0385169063bc197c8190620005f1908990899088908890889060040162000b58565b6020604051808303816000875af19250505080156200062f575060408051601f3d908101601f191682019092526200062c9181019062000b25565b60015b62000660573d80801562000526576040519150601f19603f3d011682016040523d82523d6000602084013e6200052b565b6001600160e01b0319811663bc197c8160e01b14620005a157604051632bfa23e760e11b81526001600160a01b038616600482015260240162000069565b80516001600160a01b0381168114620006b657600080fd5b919050565b634e487b7160e01b600052604160045260246000fd5b60005b83811015620006ee578181015183820152602001620006d4565b50506000910152565b600082601f8301126200070957600080fd5b81516001600160401b0380821115620007265762000726620006bb565b604051601f8301601f19908116603f01168101908282118183101715620007515762000751620006bb565b816040528381528660208588010111156200076b57600080fd5b6200077e846020830160208901620006d1565b9695505050505050565b805161ffff81168114620006b657600080fd5b600080600080600080600080610100898b031215620007b957600080fd5b620007c4896200069e565b975060208901519650620007db60408a016200069e565b60608a01519096506001600160401b0380821115620007f957600080fd5b620008078c838d01620006f7565b965060808b01519150808211156200081e57600080fd5b6200082c8c838d01620006f7565b955060a08b01519150808211156200084357600080fd5b50620008528b828c01620006f7565b9350506200086360c08a0162000788565b91506200087360e08a0162000788565b90509295985092959890939650565b600181811c908216806200089757607f821691505b602082108103620008b857634e487b7160e01b600052602260045260246000fd5b50919050565b601f8211156200090857600081815260208120601f850160051c81016020861015620008e75750805b601f850160051c820191505b81811015620001d757828155600101620008f3565b505050565b81516001600160401b03811115620009295762000929620006bb565b62000941816200093a845462000882565b84620008be565b602080601f831160018114620009795760008415620009605750858301515b600019600386901b1c1916600185901b178555620001d7565b600085815260208120601f198616915b82811015620009aa5788860151825594840194600190910190840162000989565b5085821015620009c95787850151600019600388901b60f8161c191681555b5050505050600190811b01905550565b634e487b7160e01b600052601160045260246000fd5b808202811582820484141762000a095762000a09620009d9565b92915050565b8082018082111562000a095762000a09620009d9565b60006001820162000a3a5762000a3a620009d9565b5060010190565b600081518084526020808501945080840160005b8381101562000a735781518752958201959082019060010162000a55565b509495945050505050565b60408152600062000a93604083018562000a41565b828103602084015262000aa7818562000a41565b95945050505050565b6000815180845262000aca816020860160208601620006d1565b601f01601f19169290920160200192915050565b6001600160a01b03868116825285166020820152604081018490526060810183905260a06080820181905260009062000b1a9083018462000ab0565b979650505050505050565b60006020828403121562000b3857600080fd5b81516001600160e01b03198116811462000b5157600080fd5b9392505050565b6001600160a01b0386811682528516602082015260a06040820181905260009062000b869083018662000a41565b828103606084015262000b9a818662000a41565b9050828103608084015262000bb0818562000ab0565b98975050505050505050565b60805160a05160c05161195462000c086000396000818161027701526105f00152600081816101ce01528181610586015261061d0152600081816102ce015261089a01526119546000f3fe608060405234801561001057600080fd5b50600436106101415760003560e01c80638c1f80df116100b8578063d3a6727b1161007c578063d3a6727b146102b9578063e18cb148146102cc578063e985e9c5146102f2578063f242432a14610305578063f2fde38b14610318578063fe3d88bd1461032b57600080fd5b80638c1f80df146102485780638da5cb5b14610250578063978dcce0146102755780639ee4aa941461029b578063a22cb465146102a657600080fd5b806332c62de31161010a57806332c62de3146101cc578063474f36b4146101f257806349590657146102055780634e1273f41461020d578063715018a61461022d5780637cb647591461023557600080fd5b8062fdd58e1461014657806301ffc9a71461016c5780630e89341c1461018f57806329740976146101af5780632eb2c2d6146101b7575b600080fd5b610159610154366004611245565b610333565b6040519081526020015b60405180910390f35b61017f61017a366004611285565b61035b565b6040519015158152602001610163565b6101a261019d3660046112a2565b6103ab565b6040516101639190611301565b6101a261043f565b6101ca6101c536600461145a565b6104d1565b005b7f0000000000000000000000000000000000000000000000000000000000000000610159565b6101ca610200366004611504565b61053d565b600454610159565b61022061021b36600461158a565b6107a6565b6040516101639190611685565b6101ca61087b565b6101ca6102433660046112a2565b61088f565b6101ca61090c565b6003546001600160a01b03165b6040516001600160a01b039091168152602001610163565b7f0000000000000000000000000000000000000000000000000000000000000000610159565b60075460ff1661017f565b6101ca6102b4366004611698565b61093e565b61017f6102c7366004611504565b61094d565b7f000000000000000000000000000000000000000000000000000000000000000061025d565b61017f6103003660046116d4565b6109d6565b6101ca610313366004611707565b610a04565b6101ca61032636600461176c565b610a63565b6101a2610a9e565b6000818152602081815260408083206001600160a01b03861684529091529020545b92915050565b60006001600160e01b03198216636cdb3d1360e11b148061038c57506001600160e01b031982166303a24d0760e21b145b8061035557506301ffc9a760e01b6001600160e01b0319831614610355565b6060600280546103ba90611787565b80601f01602080910402602001604051908101604052809291908181526020018280546103e690611787565b80156104335780601f1061040857610100808354040283529160200191610433565b820191906000526020600020905b81548152906001019060200180831161041657829003601f168201915b50505050509050919050565b60606006805461044e90611787565b80601f016020809104026020016040519081016040528092919081815260200182805461047a90611787565b80156104c75780601f1061049c576101008083540402835291602001916104c7565b820191906000526020600020905b8154815290600101906020018083116104aa57829003601f168201915b5050505050905090565b336001600160a01b03861681148015906104f257506104f086826109d6565b155b156105285760405163711bec9160e11b81526001600160a01b038083166004830152871660248201526044015b60405180910390fd5b6105358686868686610aad565b505050505050565b60075460ff16156105845760405162461bcd60e51b81526020600482015260116024820152701058dd1a5d9a5d1e48199a5b9a5cda1959607a1b604482015260640161051f565b7f00000000000000000000000000000000000000000000000000000000000000004210156105eb5760405162461bcd60e51b81526020600482015260146024820152731058dd1a5d9a5d1e481b9bdd081cdd185c9d195960621b604482015260640161051f565b6106177f0000000000000000000000000000000000000000000000000000000000000000610e106117d7565b610641907f00000000000000000000000000000000000000000000000000000000000000006117ee565b4211156106845760405162461bcd60e51b81526020600482015260116024820152701058dd1a5d9a5d1e48199a5b9a5cda1959607a1b604482015260640161051f565b61068f83838361094d565b6106db5760405162461bcd60e51b815260206004820152601d60248201527f596f752063616e6e6f7420776974686472617720746865207072697a65000000604482015260640161051f565b6106e6836000610333565b156107335760405162461bcd60e51b815260206004820152601860248201527f52657761726420616c726561647920636f6c6c65637465640000000000000000604482015260640161051f565b610760308460006001604051806040016040528060068152602001653bb4b73732b960d11b815250610b14565b604080516001600160a01b03851681524260208201527fe1428298f7231678faab1010aa92e326df0c827cafc86b90e5ab2e60bddd02c5910160405180910390a1505050565b606081518351146107d75781518351604051635b05999160e01b81526004810192909252602482015260440161051f565b6000835167ffffffffffffffff8111156107f3576107f3611314565b60405190808252806020026020018201604052801561081c578160200160208202803683370190505b50905060005b84518110156108735760208082028601015161084690602080840287010151610333565b82828151811061085857610858611801565b602090810291909101015261086c81611817565b9050610822565b509392505050565b610883610ba2565b61088d6000610bcf565b565b336001600160a01b037f000000000000000000000000000000000000000000000000000000000000000016146109075760405162461bcd60e51b815260206004820152601e60248201527f4f6e6c7920626f6f6e747953657457686974656c697374416464726573730000604482015260640161051f565b600455565b610914610ba2565b6007805460ff19166001179055600061092d3082610333565b905061093b30600083610c21565b50565b610949338383610c89565b5050565b6040516bffffffffffffffffffffffff19606085901b166020820152600090819060340160405160208183030381529060405280519060200120905060006109cc858580806020026020016040519081016040528093929190818152602001838360200280828437600092019190915250506004549150859050610d1f565b9695505050505050565b6001600160a01b03918216600090815260016020908152604080832093909416825291909152205460ff1690565b336001600160a01b0386168114801590610a255750610a2386826109d6565b155b15610a565760405163711bec9160e11b81526001600160a01b0380831660048301528716602482015260440161051f565b6105358686868686610b14565b610a6b610ba2565b6001600160a01b038116610a9557604051631e4fbdf760e01b81526000600482015260240161051f565b61093b81610bcf565b60606005805461044e90611787565b6001600160a01b038416610ad757604051632bfa23e760e11b81526000600482015260240161051f565b6001600160a01b038516610b0057604051626a0d4560e21b81526000600482015260240161051f565b610b0d8585858585610d35565b5050505050565b6001600160a01b038416610b3e57604051632bfa23e760e11b81526000600482015260240161051f565b6001600160a01b038516610b6757604051626a0d4560e21b81526000600482015260240161051f565b60408051600180825260208201869052818301908152606082018590526080820190925290610b998787848487610d35565b50505050505050565b6003546001600160a01b0316331461088d5760405163118cdaa760e01b815233600482015260240161051f565b600380546001600160a01b038381166001600160a01b0319831681179093556040519116919082907f8be0079c531659141344cd1fd0a4f28419497f9722a3daafe3b4186f6b6457e090600090a35050565b6001600160a01b038316610c4a57604051626a0d4560e21b81526000600482015260240161051f565b604080516001808252602082018590528183019081526060820184905260a08201909252600060808201818152919291610b0d91879185908590610d35565b6001600160a01b038216610cb25760405162ced3e160e81b81526000600482015260240161051f565b6001600160a01b03838116600081815260016020908152604080832094871680845294825291829020805460ff191686151590811790915591519182527f17307eab39ab6107e8899845ad3d59bd9653f200f220920489ca2b5937696c31910160405180910390a3505050565b600082610d2c8584610d88565b14949350505050565b610d4185858585610dcd565b6001600160a01b03841615610b0d5782513390600103610d7a5760208481015190840151610d73838989858589610fea565b5050610535565b61053581878787878761110e565b600081815b845181101561087357610db982868381518110610dac57610dac611801565b60200260200101516111f7565b915080610dc581611817565b915050610d8d565b8051825114610dfc5781518151604051635b05999160e01b81526004810192909252602482015260440161051f565b3360005b8351811015610f0b576020818102858101820151908501909101516001600160a01b03881615610eb3576000828152602081815260408083206001600160a01b038c16845290915290205481811015610e8c576040516303dee4c560e01b81526001600160a01b038a16600482015260248101829052604481018390526064810184905260840161051f565b6000838152602081815260408083206001600160a01b038d16845290915290209082900390555b6001600160a01b03871615610ef8576000828152602081815260408083206001600160a01b038b16845290915281208054839290610ef29084906117ee565b90915550505b505080610f0490611817565b9050610e00565b508251600103610f8c5760208301516000906020840151909150856001600160a01b0316876001600160a01b0316846001600160a01b03167fc3d58168c5ae7397731d063d5bbf3d657854427343f4c083240f7aacaa2d0f628585604051610f7d929190918252602082015260400190565b60405180910390a45050610b0d565b836001600160a01b0316856001600160a01b0316826001600160a01b03167f4a39dc06d4c0dbc64b70af90fd698a233a518aa5d07e595d983b8c0526c8f7fb8686604051610fdb929190611830565b60405180910390a45050505050565b6001600160a01b0384163b156105355760405163f23a6e6160e01b81526001600160a01b0385169063f23a6e619061102e908990899088908890889060040161185e565b6020604051808303816000875af1925050508015611069575060408051601f3d908101601f19168201909252611066918101906118a3565b60015b6110d2573d808015611097576040519150601f19603f3d011682016040523d82523d6000602084013e61109c565b606091505b5080516000036110ca57604051632bfa23e760e11b81526001600160a01b038616600482015260240161051f565b805181602001fd5b6001600160e01b0319811663f23a6e6160e01b14610b9957604051632bfa23e760e11b81526001600160a01b038616600482015260240161051f565b6001600160a01b0384163b156105355760405163bc197c8160e01b81526001600160a01b0385169063bc197c819061115290899089908890889088906004016118c0565b6020604051808303816000875af192505050801561118d575060408051601f3d908101601f1916820190925261118a918101906118a3565b60015b6111bb573d808015611097576040519150601f19603f3d011682016040523d82523d6000602084013e61109c565b6001600160e01b0319811663bc197c8160e01b14610b9957604051632bfa23e760e11b81526001600160a01b038616600482015260240161051f565b6000818310611213576000828152602084905260409020611222565b60008381526020839052604090205b9392505050565b80356001600160a01b038116811461124057600080fd5b919050565b6000806040838503121561125857600080fd5b61126183611229565b946020939093013593505050565b6001600160e01b03198116811461093b57600080fd5b60006020828403121561129757600080fd5b81356112228161126f565b6000602082840312156112b457600080fd5b5035919050565b6000815180845260005b818110156112e1576020818501810151868301820152016112c5565b506000602082860101526020601f19601f83011685010191505092915050565b60208152600061122260208301846112bb565b634e487b7160e01b600052604160045260246000fd5b604051601f8201601f1916810167ffffffffffffffff8111828210171561135357611353611314565b604052919050565b600067ffffffffffffffff82111561137557611375611314565b5060051b60200190565b600082601f83011261139057600080fd5b813560206113a56113a08361135b565b61132a565b82815260059290921b840181019181810190868411156113c457600080fd5b8286015b848110156113df57803583529183019183016113c8565b509695505050505050565b600082601f8301126113fb57600080fd5b813567ffffffffffffffff81111561141557611415611314565b611428601f8201601f191660200161132a565b81815284602083860101111561143d57600080fd5b816020850160208301376000918101602001919091529392505050565b600080600080600060a0868803121561147257600080fd5b61147b86611229565b945061148960208701611229565b9350604086013567ffffffffffffffff808211156114a657600080fd5b6114b289838a0161137f565b945060608801359150808211156114c857600080fd5b6114d489838a0161137f565b935060808801359150808211156114ea57600080fd5b506114f7888289016113ea565b9150509295509295909350565b60008060006040848603121561151957600080fd5b61152284611229565b9250602084013567ffffffffffffffff8082111561153f57600080fd5b818601915086601f83011261155357600080fd5b81358181111561156257600080fd5b8760208260051b850101111561157757600080fd5b6020830194508093505050509250925092565b6000806040838503121561159d57600080fd5b823567ffffffffffffffff808211156115b557600080fd5b818501915085601f8301126115c957600080fd5b813560206115d96113a08361135b565b82815260059290921b840181019181810190898411156115f857600080fd5b948201945b8386101561161d5761160e86611229565b825294820194908201906115fd565b9650508601359250508082111561163357600080fd5b506116408582860161137f565b9150509250929050565b600081518084526020808501945080840160005b8381101561167a5781518752958201959082019060010161165e565b509495945050505050565b602081526000611222602083018461164a565b600080604083850312156116ab57600080fd5b6116b483611229565b9150602083013580151581146116c957600080fd5b809150509250929050565b600080604083850312156116e757600080fd5b6116f083611229565b91506116fe60208401611229565b90509250929050565b600080600080600060a0868803121561171f57600080fd5b61172886611229565b945061173660208701611229565b93506040860135925060608601359150608086013567ffffffffffffffff81111561176057600080fd5b6114f7888289016113ea565b60006020828403121561177e57600080fd5b61122282611229565b600181811c9082168061179b57607f821691505b6020821081036117bb57634e487b7160e01b600052602260045260246000fd5b50919050565b634e487b7160e01b600052601160045260246000fd5b8082028115828204841417610355576103556117c1565b80820180821115610355576103556117c1565b634e487b7160e01b600052603260045260246000fd5b600060018201611829576118296117c1565b5060010190565b604081526000611843604083018561164a565b8281036020840152611855818561164a565b95945050505050565b6001600160a01b03868116825285166020820152604081018490526060810183905260a060808201819052600090611898908301846112bb565b979650505050505050565b6000602082840312156118b557600080fd5b81516112228161126f565b6001600160a01b0386811682528516602082015260a0604082018190526000906118ec9083018661164a565b82810360608401526118fe818661164a565b9050828103608084015261191281856112bb565b9897505050505050505056fea26469706673582212209f4d32351f27427fdd3d9c8b59a75d36e96c285c67d4a8e097f6af2443e5092a64736f6c63430008140033","linkReferences":{}},"methodIdentifiers":{"activityFinished()":"8c1f80df","balanceOf(address,uint256)":"00fdd58e","balanceOfBatch(address[],uint256[])":"4e1273f4","checkInWhitelist(address,bytes32[])":"d3a6727b","getActivityFinished()":"9ee4aa94","getActivityName()":"29740976","getActivityStart()":"32c62de3","getBoontySetWhitelist()":"e18cb148","getBrandName()":"fe3d88bd","getHoursAvailable()":"978dcce0","getMerkleRoot()":"49590657","isApprovedForAll(address,address)":"e985e9c5","owner()":"8da5cb5b","renounceOwnership()":"715018a6","safeBatchTransferFrom(address,address,uint256[],uint256[],bytes)":"2eb2c2d6","safeTransferFrom(address,address,uint256,uint256,bytes)":"f242432a","setApprovalForAll(address,bool)":"a22cb465","setMerkleRoot(bytes32)":"7cb64759","supportsInterface(bytes4)":"01ffc9a7","transferOwnership(address)":"f2fde38b","uri(uint256)":"0e89341c","withdrawPrize(address,bytes32[])":"474f36b4"},"id":48}