{
  "abi": [
    {
      "type": "function",
      "name": "BPS_DIVISOR",
      "inputs": [],
      "outputs": [
        {
          "name": "",
          "type": "uint32",
          "internalType": "uint32"
        }
      ],
      "stateMutability": "view"
    },
    {
      "type": "function",
      "name": "_totalClaimed",
      "inputs": [],
      "outputs": [
        {
          "name": "",
          "type": "uint256",
          "internalType": "uint256"
        }
      ],
      "stateMutability": "view"
    },
    {
      "type": "function",
      "name": "activityFinished",
      "inputs": [],
      "outputs": [],
      "stateMutability": "nonpayable"
    },
    {
      "type": "function",
      "name": "checkInWhitelist",
      "inputs": [
        {
          "name": "user",
          "type": "address",
          "internalType": "address"
        },
        {
          "name": "proof",
          "type": "bytes32[]",
          "internalType": "bytes32[]"
        }
      ],
      "outputs": [
        {
          "name": "",
          "type": "bool",
          "internalType": "bool"
        }
      ],
      "stateMutability": "view"
    },
    {
      "type": "function",
      "name": "claimed",
      "inputs": [
        {
          "name": "",
          "type": "address",
          "internalType": "address"
        }
      ],
      "outputs": [
        {
          "name": "",
          "type": "bool",
          "internalType": "bool"
        }
      ],
      "stateMutability": "view"
    },
    {
      "type": "function",
      "name": "getActivityName",
      "inputs": [],
      "outputs": [
        {
          "name": "",
          "type": "string",
          "internalType": "string"
        }
      ],
      "stateMutability": "view"
    },
    {
      "type": "function",
      "name": "getActivityStart",
      "inputs": [],
      "outputs": [
        {
          "name": "",
          "type": "uint256",
          "internalType": "uint256"
        }
      ],
      "stateMutability": "view"
    },
    {
      "type": "function",
      "name": "getAsset",
      "inputs": [],
      "outputs": [
        {
          "name": "",
          "type": "address",
          "internalType": "address"
        }
      ],
      "stateMutability": "view"
    },
    {
      "type": "function",
      "name": "getBoontyAddress",
      "inputs": [],
      "outputs": [
        {
          "name": "",
          "type": "address",
          "internalType": "address"
        }
      ],
      "stateMutability": "view"
    },
    {
      "type": "function",
      "name": "getBoontySetWhitelist",
      "inputs": [],
      "outputs": [
        {
          "name": "",
          "type": "address",
          "internalType": "address"
        }
      ],
      "stateMutability": "view"
    },
    {
      "type": "function",
      "name": "getBoontyToken",
      "inputs": [],
      "outputs": [
        {
          "name": "",
          "type": "uint256",
          "internalType": "uint256"
        }
      ],
      "stateMutability": "view"
    },
    {
      "type": "function",
      "name": "getBrandName",
      "inputs": [],
      "outputs": [
        {
          "name": "",
          "type": "string",
          "internalType": "string"
        }
      ],
      "stateMutability": "view"
    },
    {
      "type": "function",
      "name": "getHoursAvailable",
      "inputs": [],
      "outputs": [
        {
          "name": "",
          "type": "uint256",
          "internalType": "uint256"
        }
      ],
      "stateMutability": "view"
    },
    {
      "type": "function",
      "name": "getMerkleRoot",
      "inputs": [],
      "outputs": [
        {
          "name": "",
          "type": "bytes32",
          "internalType": "bytes32"
        }
      ],
      "stateMutability": "view"
    },
    {
      "type": "function",
      "name": "getOwner",
      "inputs": [],
      "outputs": [
        {
          "name": "",
          "type": "address",
          "internalType": "address"
        }
      ],
      "stateMutability": "view"
    },
    {
      "type": "function",
      "name": "getShares",
      "inputs": [],
      "outputs": [
        {
          "name": "",
          "type": "uint256",
          "internalType": "uint256"
        }
      ],
      "stateMutability": "view"
    },
    {
      "type": "function",
      "name": "getSupply",
      "inputs": [],
      "outputs": [
        {
          "name": "",
          "type": "uint256",
          "internalType": "uint256"
        }
      ],
      "stateMutability": "view"
    },
    {
      "type": "function",
      "name": "getWhenActivityFinished",
      "inputs": [],
      "outputs": [
        {
          "name": "",
          "type": "uint256",
          "internalType": "uint256"
        }
      ],
      "stateMutability": "view"
    },
    {
      "type": "function",
      "name": "initialize",
      "inputs": [
        {
          "name": "boontyAddress",
          "type": "address",
          "internalType": "address"
        },
        {
          "name": "boontySetWhitelist",
          "type": "address",
          "internalType": "address"
        },
        {
          "name": "asset",
          "type": "address",
          "internalType": "address"
        },
        {
          "name": "supply",
          "type": "uint256",
          "internalType": "uint256"
        },
        {
          "name": "fees",
          "type": "uint16",
          "internalType": "uint16"
        },
        {
          "name": "brandAddress",
          "type": "address",
          "internalType": "address"
        },
        {
          "name": "brandName",
          "type": "string",
          "internalType": "string"
        },
        {
          "name": "activityName",
          "type": "string",
          "internalType": "string"
        },
        {
          "name": "maxWinners",
          "type": "uint256",
          "internalType": "uint256"
        },
        {
          "name": "activityStart",
          "type": "uint16",
          "internalType": "uint16"
        },
        {
          "name": "hoursAvailable",
          "type": "uint16",
          "internalType": "uint16"
        }
      ],
      "outputs": [],
      "stateMutability": "nonpayable"
    },
    {
      "type": "function",
      "name": "isActivityFinished",
      "inputs": [],
      "outputs": [
        {
          "name": "",
          "type": "bool",
          "internalType": "bool"
        }
      ],
      "stateMutability": "view"
    },
    {
      "type": "function",
      "name": "setMerkleRoot",
      "inputs": [
        {
          "name": "merkleRoot",
          "type": "bytes32",
          "internalType": "bytes32"
        }
      ],
      "outputs": [],
      "stateMutability": "nonpayable"
    },
    {
      "type": "function",
      "name": "withdrawPrize",
      "inputs": [
        {
          "name": "user",
          "type": "address",
          "internalType": "address"
        },
        {
          "name": "proof",
          "type": "bytes32[]",
          "internalType": "bytes32[]"
        }
      ],
      "outputs": [],
      "stateMutability": "nonpayable"
    },
    {
      "type": "event",
      "name": "ClaimedBy",
      "inputs": [
        {
          "name": "user",
          "type": "address",
          "indexed": false,
          "internalType": "address"
        },
        {
          "name": "shares",
          "type": "uint256",
          "indexed": false,
          "internalType": "uint256"
        },
        {
          "name": "timestamp",
          "type": "uint256",
          "indexed": false,
          "internalType": "uint256"
        }
      ],
      "anonymous": false
    },
    {
      "type": "error",
      "name": "SafeERC20FailedOperation",
      "inputs": [
        {
          "name": "token",
          "type": "address",
          "internalType": "address"
        }
      ]
    }
  ],
  "bytecode": {
    "object": "0x608060405234801561001057600080fd5b50611101806100206000396000f3fe608060405234801561001057600080fd5b50600436106101425760003560e01c80638c1f80df116100b8578063d3a6727b1161007c578063d3a6727b14610271578063d73fe0aa14610284578063e18cb1481461028c578063fcdac49d1461029d578063fd515e38146102b0578063fe3d88bd146102b957600080fd5b80638c1f80df146102255780639736c4341461022d578063978dcce01461023e578063a0852d9114610246578063c884ef831461024e57600080fd5b806348ef55b81161010a57806348ef55b8146101ae57806349590657146101cc5780635c222bad146101d45780636c9c2faf146101f95780637cb6475914610201578063893d20e81461021457600080fd5b8063191fe1ed1461014757806327bf82f41461016a578063297409761461017c57806332c62de314610191578063474f36b414610199575b600080fd5b61015061271081565b60405163ffffffff90911681526020015b60405180910390f35b6007545b604051908152602001610161565b6101846102c1565b6040516101619190610bb4565b60095461016e565b6101ac6101a7366004610c1e565b610353565b005b600b54600160a01b900460ff165b6040519015158152602001610161565b60005461016e565b6005546001600160a01b03165b6040516001600160a01b039091168152602001610161565b60065461016e565b6101ac61020f366004610ca4565b610568565b600b546001600160a01b03166101e1565b6101ac6105c7565b6001546001600160a01b03166101e1565b600a5461016e565b61016e6107b7565b6101bc61025c366004610cbd565b600c6020526000908152604090205460ff1681565b6101bc61027f366004610c1e565b6107db565b60085461016e565b6004546001600160a01b03166101e1565b6101ac6102ab366004610d8d565b610861565b61016e600d5481565b6101846109b4565b6060600380546102d090610e7f565b80601f01602080910402602001604051908101604052809291908181526020018280546102fc90610e7f565b80156103495780601f1061031e57610100808354040283529160200191610349565b820191906000526020600020905b81548152906001019060200180831161032c57829003601f168201915b5050505050905090565b600b54600160a01b900460ff16156103865760405162461bcd60e51b815260040161037d90610eb9565b60405180910390fd5b6009544210156103cf5760405162461bcd60e51b81526020600482015260146024820152731058dd1a5d9a5d1e481b9bdd081cdd185c9d195960621b604482015260640161037d565b600a546103de90610e10610efa565b6009546103eb9190610f11565b42111561040a5760405162461bcd60e51b815260040161037d90610eb9565b6104158383836107db565b6104615760405162461bcd60e51b815260206004820152601d60248201527f596f752063616e6e6f7420776974686472617720746865207072697a65000000604482015260640161037d565b6001600160a01b0383166000908152600c602052604090205460ff16156104c35760405162461bcd60e51b8152602060048201526016602482015275151bdad95b9cc8185b1c9958591e4818db185a5b595960521b604482015260640161037d565b6001600160a01b0383166000908152600c60205260408120805460ff19166001908117909155600d8054919290916104fc908490610f11565b909155505060085460055461051b906001600160a01b031685836109c3565b604080516001600160a01b038616815260208101839052428183015290517e947ef4ebc705be125859711d563ff41e5b4de059732f7a756fd288c6348b269181900360600190a150505050565b6004546001600160a01b031633146105c25760405162461bcd60e51b815260206004820152601e60248201527f4f6e6c7920626f6f6e747953657457686974656c697374416464726573730000604482015260640161037d565b600055565b600b54600160a01b900460ff16156105f15760405162461bcd60e51b815260040161037d90610eb9565b600654600854600d546106049190610efa565b0361066b57600b546001600160a01b031633148061062c57506001546001600160a01b031633145b61063557600080fd5b600b805460ff60a01b1916600160a01b179055600154600754600554610669926001600160a01b03918216929116906109c3565b565b600a5461067a90610e10610efa565b6009546106879190610f11565b421161076857600b546001600160a01b031633146106a457600080fd5b600b805460ff60a01b1916600160a01b1790556001546007546005546106d8926001600160a01b03918216929116906109c3565b6005546040516370a0823160e01b81523060048201526000916001600160a01b0316906370a0823190602401602060405180830381865afa158015610721573d6000803e3d6000fd5b505050506040513d601f19601f820116820180604052508101906107459190610f24565b600b54600554919250610765916001600160a01b039081169116836109c3565b50565b600a5461077790610e10610efa565b6009546107849190610f11565b42111561066957600b546001600160a01b03163314806107ae57506001546001600160a01b031633145b6106a457600080fd5b6000600a54610e106107c99190610efa565b6009546107d69190610f11565b905090565b6040516bffffffffffffffffffffffff19606085901b16602082015260009081906034016040516020818303038152906040528051906020012090506108568484808060200260200160405190810160405280939291908181526020018383602002808284376000920182905250549250859150610a1a9050565b9150505b9392505050565b600b546001600160a01b0316156108b05760405162461bcd60e51b8152602060048201526013602482015272105b1c9958591e481a5b9a5d1a585b1a5e9959606a1b604482015260640161037d565b600b80546001600160a01b038089166001600160a01b031992831617909255600180548e8416908316179055600480548d841690831617905560058054928c1692909116919091179055600061090d8961ffff8a16612710610a30565b610917908a610f3d565b90506109238482610f66565b61092d9082610f3d565b600655600261093c8782610fc8565b5060036109498682610fc8565b506109548482611088565b600855610976876109658684610f66565b6001600160a01b038d1691906109c3565b610980818a610f3d565b60075561099361ffff8416610e10610efa565b61099d9042610f11565b6009555061ffff16600a5550505050505050505050565b6060600280546102d090610e7f565b604080516001600160a01b038416602482015260448082018490528251808303909101815260649091019091526020810180516001600160e01b031663a9059cbb60e01b179052610a15908490610ac2565b505050565b600082610a278584610b39565b14949350505050565b82820281838583041485151702610abb576000198385098181108201900382848609836000038416828511610a6d5763ae47f7026000526004601cfd5b9384900493838211909203600083900383900460010102920304176002600383028118808402820302808402820302808402820302808402820302808402820302808402909103020261085a565b0492915050565b600080602060008451602086016000885af180610ae5576040513d6000823e3d81fd5b50506000513d91508115610afd578060011415610b0a565b6001600160a01b0384163b155b15610b3357604051635274afe760e01b81526001600160a01b038516600482015260240161037d565b50505050565b600081815b8451811015610b7e57610b6a82868381518110610b5d57610b5d61109c565b6020026020010151610b88565b915080610b76816110b2565b915050610b3e565b5090505b92915050565b6000818310610ba457600082815260208490526040902061085a565b5060009182526020526040902090565b600060208083528351808285015260005b81811015610be157858101830151858201604001528201610bc5565b506000604082860101526040601f19601f8301168501019250505092915050565b80356001600160a01b0381168114610c1957600080fd5b919050565b600080600060408486031215610c3357600080fd5b610c3c84610c02565b9250602084013567ffffffffffffffff80821115610c5957600080fd5b818601915086601f830112610c6d57600080fd5b813581811115610c7c57600080fd5b8760208260051b8501011115610c9157600080fd5b6020830194508093505050509250925092565b600060208284031215610cb657600080fd5b5035919050565b600060208284031215610ccf57600080fd5b61085a82610c02565b803561ffff81168114610c1957600080fd5b634e487b7160e01b600052604160045260246000fd5b600082601f830112610d1157600080fd5b813567ffffffffffffffff80821115610d2c57610d2c610cea565b604051601f8301601f19908116603f01168101908282118183101715610d5457610d54610cea565b81604052838152866020858801011115610d6d57600080fd5b836020870160208301376000602085830101528094505050505092915050565b60008060008060008060008060008060006101608c8e031215610daf57600080fd5b610db88c610c02565b9a50610dc660208d01610c02565b9950610dd460408d01610c02565b985060608c01359750610de960808d01610cd8565b9650610df760a08d01610c02565b955067ffffffffffffffff8060c08e01351115610e1357600080fd5b610e238e60c08f01358f01610d00565b95508060e08e01351115610e3657600080fd5b50610e478d60e08e01358e01610d00565b93506101008c01359250610e5e6101208d01610cd8565b9150610e6d6101408d01610cd8565b90509295989b509295989b9093969950565b600181811c90821680610e9357607f821691505b602082108103610eb357634e487b7160e01b600052602260045260246000fd5b50919050565b6020808252601190820152701058dd1a5d9a5d1e48199a5b9a5cda1959607a1b604082015260600190565b634e487b7160e01b600052601160045260246000fd5b8082028115828204841417610b8257610b82610ee4565b80820180821115610b8257610b82610ee4565b600060208284031215610f3657600080fd5b5051919050565b81810381811115610b8257610b82610ee4565b634e487b7160e01b600052601260045260246000fd5b600082610f7557610f75610f50565b500690565b601f821115610a1557600081815260208120601f850160051c81016020861015610fa15750805b601f850160051c820191505b81811015610fc057828155600101610fad565b505050505050565b815167ffffffffffffffff811115610fe257610fe2610cea565b610ff681610ff08454610e7f565b84610f7a565b602080601f83116001811461102b57600084156110135750858301515b600019600386901b1c1916600185901b178555610fc0565b600085815260208120601f198616915b8281101561105a5788860151825594840194600190910190840161103b565b50858210156110785787850151600019600388901b60f8161c191681555b5050505050600190811b01905550565b60008261109757611097610f50565b500490565b634e487b7160e01b600052603260045260246000fd5b6000600182016110c4576110c4610ee4565b506001019056fea26469706673582212209a2109eb355828e420ad604f5d1bfda2cbeb8e2e758610dde470c6937c7875fb64736f6c63430008140033",
    "linkReferences": {}
  },
  "methodIdentifiers": {
    "BPS_DIVISOR()": "191fe1ed",
    "_totalClaimed()": "fd515e38",
    "activityFinished()": "8c1f80df",
    "checkInWhitelist(address,bytes32[])": "d3a6727b",
    "claimed(address)": "c884ef83",
    "getActivityName()": "29740976",
    "getActivityStart()": "32c62de3",
    "getAsset()": "5c222bad",
    "getBoontyAddress()": "9736c434",
    "getBoontySetWhitelist()": "e18cb148",
    "getBoontyToken()": "27bf82f4",
    "getBrandName()": "fe3d88bd",
    "getHoursAvailable()": "978dcce0",
    "getMerkleRoot()": "49590657",
    "getOwner()": "893d20e8",
    "getShares()": "d73fe0aa",
    "getSupply()": "6c9c2faf",
    "getWhenActivityFinished()": "a0852d91",
    "initialize(address,address,address,uint256,uint16,address,string,string,uint256,uint16,uint16)": "fcdac49d",
    "isActivityFinished()": "48ef55b8",
    "setMerkleRoot(bytes32)": "7cb64759",
    "withdrawPrize(address,bytes32[])": "474f36b4"
  },
  "id": 49
}