{
  "abi": [
    {
      "type": "constructor",
      "inputs": [
        {
          "name": "initialOwner",
          "type": "address",
          "internalType": "address"
        },
        {
          "name": "asset",
          "type": "address",
          "internalType": "address"
        }
      ],
      "stateMutability": "nonpayable"
    },
    {
      "type": "function",
      "name": "_activitiesERC1155",
      "inputs": [
        {
          "name": "",
          "type": "uint256",
          "internalType": "uint256"
        }
      ],
      "outputs": [
        {
          "name": "",
          "type": "address",
          "internalType": "address"
        }
      ],
      "stateMutability": "view"
    },
    {
      "type": "function",
      "name": "_activitiesERC20",
      "inputs": [
        {
          "name": "",
          "type": "uint256",
          "internalType": "uint256"
        }
      ],
      "outputs": [
        {
          "name": "",
          "type": "address",
          "internalType": "address"
        }
      ],
      "stateMutability": "view"
    },
    {
      "type": "function",
      "name": "createActivityERC1155",
      "inputs": [
        {
          "name": "supply",
          "type": "uint256",
          "internalType": "uint256"
        },
        {
          "name": "brandName",
          "type": "string",
          "internalType": "string"
        },
        {
          "name": "activityName",
          "type": "string",
          "internalType": "string"
        },
        {
          "name": "uri",
          "type": "string",
          "internalType": "string"
        },
        {
          "name": "activityStart",
          "type": "uint16",
          "internalType": "uint16"
        },
        {
          "name": "hoursAvailable",
          "type": "uint16",
          "internalType": "uint16"
        },
        {
          "name": "brandAddress",
          "type": "address",
          "internalType": "address"
        }
      ],
      "outputs": [
        {
          "name": "",
          "type": "address",
          "internalType": "address"
        }
      ],
      "stateMutability": "nonpayable"
    },
    {
      "type": "function",
      "name": "createActivityERC20",
      "inputs": [
        {
          "name": "supply",
          "type": "uint256",
          "internalType": "uint256"
        },
        {
          "name": "brandName",
          "type": "string",
          "internalType": "string"
        },
        {
          "name": "activityName",
          "type": "string",
          "internalType": "string"
        },
        {
          "name": "maxWinners",
          "type": "uint256",
          "internalType": "uint256"
        },
        {
          "name": "activityStart",
          "type": "uint16",
          "internalType": "uint16"
        },
        {
          "name": "hoursAvailable",
          "type": "uint16",
          "internalType": "uint16"
        }
      ],
      "outputs": [
        {
          "name": "",
          "type": "address",
          "internalType": "address"
        }
      ],
      "stateMutability": "nonpayable"
    },
    {
      "type": "function",
      "name": "getActivitiesERC1155",
      "inputs": [],
      "outputs": [
        {
          "name": "",
          "type": "address[]",
          "internalType": "address[]"
        }
      ],
      "stateMutability": "view"
    },
    {
      "type": "function",
      "name": "getActivitiesERC20",
      "inputs": [],
      "outputs": [
        {
          "name": "",
          "type": "address[]",
          "internalType": "address[]"
        }
      ],
      "stateMutability": "view"
    },
    {
      "type": "function",
      "name": "getActivityERC20",
      "inputs": [],
      "outputs": [
        {
          "name": "",
          "type": "address",
          "internalType": "address"
        }
      ],
      "stateMutability": "view"
    },
    {
      "type": "function",
      "name": "getAsset",
      "inputs": [],
      "outputs": [
        {
          "name": "",
          "type": "address",
          "internalType": "address"
        }
      ],
      "stateMutability": "view"
    },
    {
      "type": "function",
      "name": "getBoontySetWhitelist",
      "inputs": [],
      "outputs": [
        {
          "name": "",
          "type": "address",
          "internalType": "address"
        }
      ],
      "stateMutability": "view"
    },
    {
      "type": "function",
      "name": "getFees",
      "inputs": [],
      "outputs": [
        {
          "name": "",
          "type": "uint16",
          "internalType": "uint16"
        }
      ],
      "stateMutability": "view"
    },
    {
      "type": "function",
      "name": "getFixedFees",
      "inputs": [],
      "outputs": [
        {
          "name": "",
          "type": "uint256",
          "internalType": "uint256"
        }
      ],
      "stateMutability": "view"
    },
    {
      "type": "function",
      "name": "owner",
      "inputs": [],
      "outputs": [
        {
          "name": "",
          "type": "address",
          "internalType": "address"
        }
      ],
      "stateMutability": "view"
    },
    {
      "type": "function",
      "name": "renounceOwnership",
      "inputs": [],
      "outputs": [],
      "stateMutability": "nonpayable"
    },
    {
      "type": "function",
      "name": "setAsset",
      "inputs": [
        {
          "name": "asset",
          "type": "address",
          "internalType": "address"
        }
      ],
      "outputs": [],
      "stateMutability": "nonpayable"
    },
    {
      "type": "function",
      "name": "setBoontySetWhitelist",
      "inputs": [
        {
          "name": "boontySetWhitelist",
          "type": "address",
          "internalType": "address"
        }
      ],
      "outputs": [],
      "stateMutability": "nonpayable"
    },
    {
      "type": "function",
      "name": "setFees",
      "inputs": [
        {
          "name": "newfees",
          "type": "uint16",
          "internalType": "uint16"
        }
      ],
      "outputs": [],
      "stateMutability": "nonpayable"
    },
    {
      "type": "function",
      "name": "setFixedFees",
      "inputs": [
        {
          "name": "fixedFees",
          "type": "uint256",
          "internalType": "uint256"
        }
      ],
      "outputs": [],
      "stateMutability": "nonpayable"
    },
    {
      "type": "function",
      "name": "transferOwnership",
      "inputs": [
        {
          "name": "newOwner",
          "type": "address",
          "internalType": "address"
        }
      ],
      "outputs": [],
      "stateMutability": "nonpayable"
    },
    {
      "type": "event",
      "name": "ActivityCreated",
      "inputs": [
        {
          "name": "newActivity",
          "type": "address",
          "indexed": false,
          "internalType": "address"
        }
      ],
      "anonymous": false
    },
    {
      "type": "event",
      "name": "OwnershipTransferred",
      "inputs": [
        {
          "name": "previousOwner",
          "type": "address",
          "indexed": true,
          "internalType": "address"
        },
        {
          "name": "newOwner",
          "type": "address",
          "indexed": true,
          "internalType": "address"
        }
      ],
      "anonymous": false
    },
    {
      "type": "error",
      "name": "FailedDeployment",
      "inputs": []
    },
    {
      "type": "error",
      "name": "InsufficientBalance",
      "inputs": [
        {
          "name": "balance",
          "type": "uint256",
          "internalType": "uint256"
        },
        {
          "name": "needed",
          "type": "uint256",
          "internalType": "uint256"
        }
      ]
    },
    {
      "type": "error",
      "name": "OwnableInvalidOwner",
      "inputs": [
        {
          "name": "owner",
          "type": "address",
          "internalType": "address"
        }
      ]
    },
    {
      "type": "error",
      "name": "OwnableUnauthorizedAccount",
      "inputs": [
        {
          "name": "account",
          "type": "address",
          "internalType": "address"
        }
      ]
    },
    {
      "type": "error",
      "name": "SafeERC20FailedOperation",
      "inputs": [
        {
          "name": "token",
          "type": "address",
          "internalType": "address"
        }
      ]
    }
  ],
  "bytecode": {
    "object": "0x60806040523480156200001157600080fd5b50604051620048da380380620048da83398101604081905262000034916200015f565b816001600160a01b0381166200006457604051631e4fbdf760e01b81526000600482015260240160405180910390fd5b6200006f81620000e4565b506000604051620000809062000134565b604051809103906000f0801580156200009d573d6000803e3d6000fd5b50600280546001600160a01b03199081166001600160a01b039384161790915560038054821695831695909517909455600180549094169216919091179091555062000197565b600080546001600160a01b038381166001600160a01b0319831681178455604051919092169283917f8be0079c531659141344cd1fd0a4f28419497f9722a3daafe3b4186f6b6457e09190a35050565b61112180620037b983390190565b80516001600160a01b03811681146200015a57600080fd5b919050565b600080604083850312156200017357600080fd5b6200017e8362000142565b91506200018e6020840162000142565b90509250929050565b61361280620001a76000396000f3fe60806040523480156200001157600080fd5b50600436106200012d5760003560e01c80638da5cb5b11620000af578063db8d55f1116200007a578063db8d55f11462000262578063e18cb1481462000279578063e4f3f802146200028b578063f21757fa14620002a2578063f2fde38b14620002ac57600080fd5b80638da5cb5b1462000210578063b34b278a1462000222578063ca1123c21462000234578063d0d552dd146200024b57600080fd5b80635aab4fd511620000fc5780635aab4fd514620001b25780635af4a5e614620001cb5780635c222bad14620001e2578063715018a614620001f45780637fb430dd14620001fe57600080fd5b80632aaa819a1462000132578063370c98281462000154578063465a8f2014620001845780635461483a146200019b575b600080fd5b6200013c620002c3565b6040516200014b919062000c0d565b60405180910390f35b6200016b6200016536600462000d37565b62000327565b6040516001600160a01b0390911681526020016200014b565b6200016b6200019536600462000e0b565b62000510565b6200016b620001ac36600462000e0b565b6200053b565b620001c9620001c336600462000e25565b6200054c565b005b620001c9620001dc36600462000e0b565b620005c1565b6001546001600160a01b03166200016b565b620001c9620005d0565b6002546001600160a01b03166200016b565b6000546001600160a01b03166200016b565b6004546040519081526020016200014b565b620001c96200024536600462000e4a565b620005e8565b620001c96200025c36600462000e25565b62000651565b60055460405161ffff90911681526020016200014b565b6003546001600160a01b03166200016b565b6200016b6200029c36600462000e68565b620006c6565b6200013c62000954565b620001c9620002bd36600462000e25565b620009b6565b606060078054806020026020016040519081016040528092919081815260200182805480156200031d57602002820191906000526020600020905b81546001600160a01b03168152600190910190602001808311620002fe575b5050505050905090565b60015460048054604051636eb1769f60e11b815233928101929092523060248301526000926001600160a01b0316918190839063dd62ed3e90604401602060405180830381865afa15801562000381573d6000803e3d6000fd5b505050506040513d601f19601f82011682018060405250810190620003a7919062000f0a565b1015620003f55760405162461bcd60e51b8152602060048201526017602482015276496e63726561736520796f757220616c6c6f77616e636560481b60448201526064015b60405180910390fd5b62000420336200040d6000546001600160a01b031690565b6001600160a01b038516919084620009fa565b6000600360009054906101000a90046001600160a01b03168b868c8c8c8c8c6040516200044d9062000bff565b6200046098979695949392919062000f6c565b604051809103906000f0801580156200047d573d6000803e3d6000fd5b50600780546001810182556000919091527fa66cc928b5edb82af9bd49922954155ab7b0942694bea4ce44661d9a8736c6880180546001600160a01b0319166001600160a01b0383169081179091556040519081529091507fd0f1c12c46956c700716e9c411855dab006b2807e390e37b681889ae0573369e9060200160405180910390a19a9950505050505050505050565b600781815481106200052157600080fd5b6000918252602090912001546001600160a01b0316905081565b600681815481106200052157600080fd5b6200055662000a5c565b806001600160a01b0381166200059e5760405162461bcd60e51b815260206004820152600c60248201526b5a65726f206164647265737360a01b6044820152606401620003ec565b50600380546001600160a01b0319166001600160a01b0392909216919091179055565b620005cb62000a5c565b600455565b620005da62000a5c565b620005e6600062000a8b565b565b620005f262000a5c565b6107d08161ffff1610620006395760405162461bcd60e51b815260206004820152600d60248201526c08ccacae640e8dede40d0d2ced609b1b6044820152606401620003ec565b6005805461ffff191661ffff92909216919091179055565b6200065b62000a5c565b806001600160a01b038116620006a35760405162461bcd60e51b815260206004820152600c60248201526b5a65726f206164647265737360a01b6044820152606401620003ec565b50600180546001600160a01b0319166001600160a01b0392909216919091179055565b6002546000906001600160a01b0316620007235760405162461bcd60e51b815260206004820152601e60248201527f54656d706c6174652073746f7261676520646f65736e277420657869737400006044820152606401620003ec565b600154604051636eb1769f60e11b81523360048201523060248201526001600160a01b03909116908890829063dd62ed3e90604401602060405180830381865afa15801562000776573d6000803e3d6000fd5b505050506040513d601f19601f820116820180604052508101906200079c919062000f0a565b1015620007e65760405162461bcd60e51b8152602060048201526017602482015276496e63726561736520796f757220616c6c6f77616e636560481b6044820152606401620003ec565b60025460009062000800906001600160a01b031662000adb565b9050620008196001600160a01b03831633838c620009fa565b806001600160a01b031663fcdac49d6200083b6000546001600160a01b031690565b600360009054906101000a90046001600160a01b0316858d600560009054906101000a900461ffff16338f8f8f8f8f6040518c63ffffffff1660e01b8152600401620008929b9a9998979695949392919062000ff2565b600060405180830381600087803b158015620008ad57600080fd5b505af1158015620008c2573d6000803e3d6000fd5b5050600680546001810182556000919091527ff652222313e28459528d920b65115c16c04f3efc82aaedc97be59f3f377c0d3f0180546001600160a01b0319166001600160a01b0385169081179091556040519081527fd0f1c12c46956c700716e9c411855dab006b2807e390e37b681889ae0573369e9250602001905060405180910390a198975050505050505050565b606060068054806020026020016040519081016040528092919081815260200182805480156200031d576020028201919060005260206000209081546001600160a01b03168152600190910190602001808311620002fe575050505050905090565b620009c062000a5c565b6001600160a01b038116620009ec57604051631e4fbdf760e01b815260006004820152602401620003ec565b620009f78162000a8b565b50565b604080516001600160a01b0385811660248301528416604482015260648082018490528251808303909101815260849091019091526020810180516001600160e01b03166323b872dd60e01b17905262000a5690859062000af0565b50505050565b6000546001600160a01b03163314620005e65760405163118cdaa760e01b8152336004820152602401620003ec565b600080546001600160a01b038381166001600160a01b0319831681178455604051919092169283917f8be0079c531659141344cd1fd0a4f28419497f9722a3daafe3b4186f6b6457e09190a35050565b600062000aea82600062000b66565b92915050565b600080602060008451602086016000885af18062000b14576040513d6000823e3d81fd5b50506000513d9150811562000b2e57806001141562000b3b565b6001600160a01b0384163b155b1562000a5657604051635274afe760e01b81526001600160a01b0385166004820152602401620003ec565b60008147101562000b945760405163cf47918160e01b815247600482015260248101839052604401620003ec565b763d602d80600a3d3981f3363d3d373d3d3d363d730000008360601b60e81c176000526e5af43d82803e903d91602b57fd5bf38360781b176020526037600983f090506001600160a01b03811662000aea5760405163b06ebf3d60e01b815260040160405180910390fd5b61255c806200108183390190565b6020808252825182820181905260009190848201906040850190845b8181101562000c505783516001600160a01b03168352928401929184019160010162000c29565b50909695505050505050565b634e487b7160e01b600052604160045260246000fd5b600082601f83011262000c8457600080fd5b813567ffffffffffffffff8082111562000ca25762000ca262000c5c565b604051601f8301601f19908116603f0116810190828211818310171562000ccd5762000ccd62000c5c565b8160405283815286602085880101111562000ce757600080fd5b836020870160208301376000602085830101528094505050505092915050565b803561ffff8116811462000d1a57600080fd5b919050565b80356001600160a01b038116811462000d1a57600080fd5b600080600080600080600060e0888a03121562000d5357600080fd5b87359650602088013567ffffffffffffffff8082111562000d7357600080fd5b62000d818b838c0162000c72565b975060408a013591508082111562000d9857600080fd5b62000da68b838c0162000c72565b965060608a013591508082111562000dbd57600080fd5b5062000dcc8a828b0162000c72565b94505062000ddd6080890162000d07565b925062000ded60a0890162000d07565b915062000dfd60c0890162000d1f565b905092959891949750929550565b60006020828403121562000e1e57600080fd5b5035919050565b60006020828403121562000e3857600080fd5b62000e438262000d1f565b9392505050565b60006020828403121562000e5d57600080fd5b62000e438262000d07565b60008060008060008060c0878903121562000e8257600080fd5b86359550602087013567ffffffffffffffff8082111562000ea257600080fd5b62000eb08a838b0162000c72565b9650604089013591508082111562000ec757600080fd5b5062000ed689828a0162000c72565b9450506060870135925062000eee6080880162000d07565b915062000efe60a0880162000d07565b90509295509295509295565b60006020828403121562000f1d57600080fd5b5051919050565b6000815180845260005b8181101562000f4c5760208185018101518683018201520162000f2e565b506000602082860101526020601f19601f83011685010191505092915050565b6001600160a01b03898116825260208201899052871660408201526101006060820181905260009062000fa28382018962000f24565b9050828103608084015262000fb8818862000f24565b905082810360a084015262000fce818762000f24565b91505061ffff80851660c084015280841660e0840152509998505050505050505050565b600061016060018060a01b03808f168452808e166020850152808d1660408501528b606085015261ffff808c166080860152818b1660a08601528260c0860152620010408386018b62000f24565b925084830360e086015262001056838a62000f24565b6101008601989098529586166101208501525050509116610140909101529897505050505050505056fe60e06040523480156200001157600080fd5b506040516200255c3803806200255c83398101604081905262000034916200079b565b8583620000418162000112565b506001600160a01b0381166200007257604051631e4fbdf760e01b8152600060048201526024015b60405180910390fd5b6200007d8162000124565b506001600160a01b03881660805260056200009986826200090d565b506006620000a885826200090d565b50620000bb61ffff8316610e10620009ef565b620000c7904262000a0f565b60a05261ffff811660c052604080518082019091526009815268199a5c9cdd135a5b9d60ba1b6020820152620001049030906000908a9062000176565b505050505050505062000bbc565b60026200012082826200090d565b5050565b600380546001600160a01b038381166001600160a01b0319831681179093556040519116919082907f8be0079c531659141344cd1fd0a4f28419497f9722a3daafe3b4186f6b6457e090600090a35050565b6001600160a01b038416620001a257604051632bfa23e760e11b81526000600482015260240162000069565b60408051600180825260208201869052818301908152606082018590526080820190925290620001d7600087848487620001df565b505050505050565b620001ed8585858562000242565b6001600160a01b038416156200023b57825133906001036200022b57602084810151908401516200022383898985858962000470565b5050620001d7565b620001d7818787878787620005aa565b5050505050565b8051825114620002735781518151604051635b05999160e01b81526004810192909252602482015260440162000069565b3360005b83518110156200038c576020818102858101820151908501909101516001600160a01b038816156200032e576000828152602081815260408083206001600160a01b038c1684529091529020548181101562000307576040516303dee4c560e01b81526001600160a01b038a16600482015260248101829052604481018390526064810184905260840162000069565b6000838152602081815260408083206001600160a01b038d16845290915290209082900390555b6001600160a01b0387161562000376576000828152602081815260408083206001600160a01b038b168452909152812080548392906200037090849062000a0f565b90915550505b505080620003849062000a25565b905062000277565b508251600103620004105760208301516000906020840151909150856001600160a01b0316876001600160a01b0316846001600160a01b03167fc3d58168c5ae7397731d063d5bbf3d657854427343f4c083240f7aacaa2d0f62858560405162000400929190918252602082015260400190565b60405180910390a450506200023b565b836001600160a01b0316856001600160a01b0316826001600160a01b03167f4a39dc06d4c0dbc64b70af90fd698a233a518aa5d07e595d983b8c0526c8f7fb86866040516200046192919062000a7e565b60405180910390a45050505050565b6001600160a01b0384163b15620001d75760405163f23a6e6160e01b81526001600160a01b0385169063f23a6e6190620004b7908990899088908890889060040162000ade565b6020604051808303816000875af1925050508015620004f5575060408051601f3d908101601f19168201909252620004f29181019062000b25565b60015b62000563573d80801562000526576040519150601f19603f3d011682016040523d82523d6000602084013e6200052b565b606091505b5080516000036200055b57604051632bfa23e760e11b81526001600160a01b038616600482015260240162000069565b805181602001fd5b6001600160e01b0319811663f23a6e6160e01b14620005a157604051632bfa23e760e11b81526001600160a01b038616600482015260240162000069565b50505050505050565b6001600160a01b0384163b15620001d75760405163bc197c8160e01b81526001600160a01b0385169063bc197c8190620005f1908990899088908890889060040162000b58565b6020604051808303816000875af19250505080156200062f575060408051601f3d908101601f191682019092526200062c9181019062000b25565b60015b62000660573d80801562000526576040519150601f19603f3d011682016040523d82523d6000602084013e6200052b565b6001600160e01b0319811663bc197c8160e01b14620005a157604051632bfa23e760e11b81526001600160a01b038616600482015260240162000069565b80516001600160a01b0381168114620006b657600080fd5b919050565b634e487b7160e01b600052604160045260246000fd5b60005b83811015620006ee578181015183820152602001620006d4565b50506000910152565b600082601f8301126200070957600080fd5b81516001600160401b0380821115620007265762000726620006bb565b604051601f8301601f19908116603f01168101908282118183101715620007515762000751620006bb565b816040528381528660208588010111156200076b57600080fd5b6200077e846020830160208901620006d1565b9695505050505050565b805161ffff81168114620006b657600080fd5b600080600080600080600080610100898b031215620007b957600080fd5b620007c4896200069e565b975060208901519650620007db60408a016200069e565b60608a01519096506001600160401b0380821115620007f957600080fd5b620008078c838d01620006f7565b965060808b01519150808211156200081e57600080fd5b6200082c8c838d01620006f7565b955060a08b01519150808211156200084357600080fd5b50620008528b828c01620006f7565b9350506200086360c08a0162000788565b91506200087360e08a0162000788565b90509295985092959890939650565b600181811c908216806200089757607f821691505b602082108103620008b857634e487b7160e01b600052602260045260246000fd5b50919050565b601f8211156200090857600081815260208120601f850160051c81016020861015620008e75750805b601f850160051c820191505b81811015620001d757828155600101620008f3565b505050565b81516001600160401b03811115620009295762000929620006bb565b62000941816200093a845462000882565b84620008be565b602080601f831160018114620009795760008415620009605750858301515b600019600386901b1c1916600185901b178555620001d7565b600085815260208120601f198616915b82811015620009aa5788860151825594840194600190910190840162000989565b5085821015620009c95787850151600019600388901b60f8161c191681555b5050505050600190811b01905550565b634e487b7160e01b600052601160045260246000fd5b808202811582820484141762000a095762000a09620009d9565b92915050565b8082018082111562000a095762000a09620009d9565b60006001820162000a3a5762000a3a620009d9565b5060010190565b600081518084526020808501945080840160005b8381101562000a735781518752958201959082019060010162000a55565b509495945050505050565b60408152600062000a93604083018562000a41565b828103602084015262000aa7818562000a41565b95945050505050565b6000815180845262000aca816020860160208601620006d1565b601f01601f19169290920160200192915050565b6001600160a01b03868116825285166020820152604081018490526060810183905260a06080820181905260009062000b1a9083018462000ab0565b979650505050505050565b60006020828403121562000b3857600080fd5b81516001600160e01b03198116811462000b5157600080fd5b9392505050565b6001600160a01b0386811682528516602082015260a06040820181905260009062000b869083018662000a41565b828103606084015262000b9a818662000a41565b9050828103608084015262000bb0818562000ab0565b98975050505050505050565b60805160a05160c05161195462000c086000396000818161027701526105f00152600081816101ce01528181610586015261061d0152600081816102ce015261089a01526119546000f3fe608060405234801561001057600080fd5b50600436106101415760003560e01c80638c1f80df116100b8578063d3a6727b1161007c578063d3a6727b146102b9578063e18cb148146102cc578063e985e9c5146102f2578063f242432a14610305578063f2fde38b14610318578063fe3d88bd1461032b57600080fd5b80638c1f80df146102485780638da5cb5b14610250578063978dcce0146102755780639ee4aa941461029b578063a22cb465146102a657600080fd5b806332c62de31161010a57806332c62de3146101cc578063474f36b4146101f257806349590657146102055780634e1273f41461020d578063715018a61461022d5780637cb647591461023557600080fd5b8062fdd58e1461014657806301ffc9a71461016c5780630e89341c1461018f57806329740976146101af5780632eb2c2d6146101b7575b600080fd5b610159610154366004611245565b610333565b6040519081526020015b60405180910390f35b61017f61017a366004611285565b61035b565b6040519015158152602001610163565b6101a261019d3660046112a2565b6103ab565b6040516101639190611301565b6101a261043f565b6101ca6101c536600461145a565b6104d1565b005b7f0000000000000000000000000000000000000000000000000000000000000000610159565b6101ca610200366004611504565b61053d565b600454610159565b61022061021b36600461158a565b6107a6565b6040516101639190611685565b6101ca61087b565b6101ca6102433660046112a2565b61088f565b6101ca61090c565b6003546001600160a01b03165b6040516001600160a01b039091168152602001610163565b7f0000000000000000000000000000000000000000000000000000000000000000610159565b60075460ff1661017f565b6101ca6102b4366004611698565b61093e565b61017f6102c7366004611504565b61094d565b7f000000000000000000000000000000000000000000000000000000000000000061025d565b61017f6103003660046116d4565b6109d6565b6101ca610313366004611707565b610a04565b6101ca61032636600461176c565b610a63565b6101a2610a9e565b6000818152602081815260408083206001600160a01b03861684529091529020545b92915050565b60006001600160e01b03198216636cdb3d1360e11b148061038c57506001600160e01b031982166303a24d0760e21b145b8061035557506301ffc9a760e01b6001600160e01b0319831614610355565b6060600280546103ba90611787565b80601f01602080910402602001604051908101604052809291908181526020018280546103e690611787565b80156104335780601f1061040857610100808354040283529160200191610433565b820191906000526020600020905b81548152906001019060200180831161041657829003601f168201915b50505050509050919050565b60606006805461044e90611787565b80601f016020809104026020016040519081016040528092919081815260200182805461047a90611787565b80156104c75780601f1061049c576101008083540402835291602001916104c7565b820191906000526020600020905b8154815290600101906020018083116104aa57829003601f168201915b5050505050905090565b336001600160a01b03861681148015906104f257506104f086826109d6565b155b156105285760405163711bec9160e11b81526001600160a01b038083166004830152871660248201526044015b60405180910390fd5b6105358686868686610aad565b505050505050565b60075460ff16156105845760405162461bcd60e51b81526020600482015260116024820152701058dd1a5d9a5d1e48199a5b9a5cda1959607a1b604482015260640161051f565b7f00000000000000000000000000000000000000000000000000000000000000004210156105eb5760405162461bcd60e51b81526020600482015260146024820152731058dd1a5d9a5d1e481b9bdd081cdd185c9d195960621b604482015260640161051f565b6106177f0000000000000000000000000000000000000000000000000000000000000000610e106117d7565b610641907f00000000000000000000000000000000000000000000000000000000000000006117ee565b4211156106845760405162461bcd60e51b81526020600482015260116024820152701058dd1a5d9a5d1e48199a5b9a5cda1959607a1b604482015260640161051f565b61068f83838361094d565b6106db5760405162461bcd60e51b815260206004820152601d60248201527f596f752063616e6e6f7420776974686472617720746865207072697a65000000604482015260640161051f565b6106e6836000610333565b156107335760405162461bcd60e51b815260206004820152601860248201527f52657761726420616c726561647920636f6c6c65637465640000000000000000604482015260640161051f565b610760308460006001604051806040016040528060068152602001653bb4b73732b960d11b815250610b14565b604080516001600160a01b03851681524260208201527fe1428298f7231678faab1010aa92e326df0c827cafc86b90e5ab2e60bddd02c5910160405180910390a1505050565b606081518351146107d75781518351604051635b05999160e01b81526004810192909252602482015260440161051f565b6000835167ffffffffffffffff8111156107f3576107f3611314565b60405190808252806020026020018201604052801561081c578160200160208202803683370190505b50905060005b84518110156108735760208082028601015161084690602080840287010151610333565b82828151811061085857610858611801565b602090810291909101015261086c81611817565b9050610822565b509392505050565b610883610ba2565b61088d6000610bcf565b565b336001600160a01b037f000000000000000000000000000000000000000000000000000000000000000016146109075760405162461bcd60e51b815260206004820152601e60248201527f4f6e6c7920626f6f6e747953657457686974656c697374416464726573730000604482015260640161051f565b600455565b610914610ba2565b6007805460ff19166001179055600061092d3082610333565b905061093b30600083610c21565b50565b610949338383610c89565b5050565b6040516bffffffffffffffffffffffff19606085901b166020820152600090819060340160405160208183030381529060405280519060200120905060006109cc858580806020026020016040519081016040528093929190818152602001838360200280828437600092019190915250506004549150859050610d1f565b9695505050505050565b6001600160a01b03918216600090815260016020908152604080832093909416825291909152205460ff1690565b336001600160a01b0386168114801590610a255750610a2386826109d6565b155b15610a565760405163711bec9160e11b81526001600160a01b0380831660048301528716602482015260440161051f565b6105358686868686610b14565b610a6b610ba2565b6001600160a01b038116610a9557604051631e4fbdf760e01b81526000600482015260240161051f565b61093b81610bcf565b60606005805461044e90611787565b6001600160a01b038416610ad757604051632bfa23e760e11b81526000600482015260240161051f565b6001600160a01b038516610b0057604051626a0d4560e21b81526000600482015260240161051f565b610b0d8585858585610d35565b5050505050565b6001600160a01b038416610b3e57604051632bfa23e760e11b81526000600482015260240161051f565b6001600160a01b038516610b6757604051626a0d4560e21b81526000600482015260240161051f565b60408051600180825260208201869052818301908152606082018590526080820190925290610b998787848487610d35565b50505050505050565b6003546001600160a01b0316331461088d5760405163118cdaa760e01b815233600482015260240161051f565b600380546001600160a01b038381166001600160a01b0319831681179093556040519116919082907f8be0079c531659141344cd1fd0a4f28419497f9722a3daafe3b4186f6b6457e090600090a35050565b6001600160a01b038316610c4a57604051626a0d4560e21b81526000600482015260240161051f565b604080516001808252602082018590528183019081526060820184905260a08201909252600060808201818152919291610b0d91879185908590610d35565b6001600160a01b038216610cb25760405162ced3e160e81b81526000600482015260240161051f565b6001600160a01b03838116600081815260016020908152604080832094871680845294825291829020805460ff191686151590811790915591519182527f17307eab39ab6107e8899845ad3d59bd9653f200f220920489ca2b5937696c31910160405180910390a3505050565b600082610d2c8584610d88565b14949350505050565b610d4185858585610dcd565b6001600160a01b03841615610b0d5782513390600103610d7a5760208481015190840151610d73838989858589610fea565b5050610535565b61053581878787878761110e565b600081815b845181101561087357610db982868381518110610dac57610dac611801565b60200260200101516111f7565b915080610dc581611817565b915050610d8d565b8051825114610dfc5781518151604051635b05999160e01b81526004810192909252602482015260440161051f565b3360005b8351811015610f0b576020818102858101820151908501909101516001600160a01b03881615610eb3576000828152602081815260408083206001600160a01b038c16845290915290205481811015610e8c576040516303dee4c560e01b81526001600160a01b038a16600482015260248101829052604481018390526064810184905260840161051f565b6000838152602081815260408083206001600160a01b038d16845290915290209082900390555b6001600160a01b03871615610ef8576000828152602081815260408083206001600160a01b038b16845290915281208054839290610ef29084906117ee565b90915550505b505080610f0490611817565b9050610e00565b508251600103610f8c5760208301516000906020840151909150856001600160a01b0316876001600160a01b0316846001600160a01b03167fc3d58168c5ae7397731d063d5bbf3d657854427343f4c083240f7aacaa2d0f628585604051610f7d929190918252602082015260400190565b60405180910390a45050610b0d565b836001600160a01b0316856001600160a01b0316826001600160a01b03167f4a39dc06d4c0dbc64b70af90fd698a233a518aa5d07e595d983b8c0526c8f7fb8686604051610fdb929190611830565b60405180910390a45050505050565b6001600160a01b0384163b156105355760405163f23a6e6160e01b81526001600160a01b0385169063f23a6e619061102e908990899088908890889060040161185e565b6020604051808303816000875af1925050508015611069575060408051601f3d908101601f19168201909252611066918101906118a3565b60015b6110d2573d808015611097576040519150601f19603f3d011682016040523d82523d6000602084013e61109c565b606091505b5080516000036110ca57604051632bfa23e760e11b81526001600160a01b038616600482015260240161051f565b805181602001fd5b6001600160e01b0319811663f23a6e6160e01b14610b9957604051632bfa23e760e11b81526001600160a01b038616600482015260240161051f565b6001600160a01b0384163b156105355760405163bc197c8160e01b81526001600160a01b0385169063bc197c819061115290899089908890889088906004016118c0565b6020604051808303816000875af192505050801561118d575060408051601f3d908101601f1916820190925261118a918101906118a3565b60015b6111bb573d808015611097576040519150601f19603f3d011682016040523d82523d6000602084013e61109c565b6001600160e01b0319811663bc197c8160e01b14610b9957604051632bfa23e760e11b81526001600160a01b038616600482015260240161051f565b6000818310611213576000828152602084905260409020611222565b60008381526020839052604090205b9392505050565b80356001600160a01b038116811461124057600080fd5b919050565b6000806040838503121561125857600080fd5b61126183611229565b946020939093013593505050565b6001600160e01b03198116811461093b57600080fd5b60006020828403121561129757600080fd5b81356112228161126f565b6000602082840312156112b457600080fd5b5035919050565b6000815180845260005b818110156112e1576020818501810151868301820152016112c5565b506000602082860101526020601f19601f83011685010191505092915050565b60208152600061122260208301846112bb565b634e487b7160e01b600052604160045260246000fd5b604051601f8201601f1916810167ffffffffffffffff8111828210171561135357611353611314565b604052919050565b600067ffffffffffffffff82111561137557611375611314565b5060051b60200190565b600082601f83011261139057600080fd5b813560206113a56113a08361135b565b61132a565b82815260059290921b840181019181810190868411156113c457600080fd5b8286015b848110156113df57803583529183019183016113c8565b509695505050505050565b600082601f8301126113fb57600080fd5b813567ffffffffffffffff81111561141557611415611314565b611428601f8201601f191660200161132a565b81815284602083860101111561143d57600080fd5b816020850160208301376000918101602001919091529392505050565b600080600080600060a0868803121561147257600080fd5b61147b86611229565b945061148960208701611229565b9350604086013567ffffffffffffffff808211156114a657600080fd5b6114b289838a0161137f565b945060608801359150808211156114c857600080fd5b6114d489838a0161137f565b935060808801359150808211156114ea57600080fd5b506114f7888289016113ea565b9150509295509295909350565b60008060006040848603121561151957600080fd5b61152284611229565b9250602084013567ffffffffffffffff8082111561153f57600080fd5b818601915086601f83011261155357600080fd5b81358181111561156257600080fd5b8760208260051b850101111561157757600080fd5b6020830194508093505050509250925092565b6000806040838503121561159d57600080fd5b823567ffffffffffffffff808211156115b557600080fd5b818501915085601f8301126115c957600080fd5b813560206115d96113a08361135b565b82815260059290921b840181019181810190898411156115f857600080fd5b948201945b8386101561161d5761160e86611229565b825294820194908201906115fd565b9650508601359250508082111561163357600080fd5b506116408582860161137f565b9150509250929050565b600081518084526020808501945080840160005b8381101561167a5781518752958201959082019060010161165e565b509495945050505050565b602081526000611222602083018461164a565b600080604083850312156116ab57600080fd5b6116b483611229565b9150602083013580151581146116c957600080fd5b809150509250929050565b600080604083850312156116e757600080fd5b6116f083611229565b91506116fe60208401611229565b90509250929050565b600080600080600060a0868803121561171f57600080fd5b61172886611229565b945061173660208701611229565b93506040860135925060608601359150608086013567ffffffffffffffff81111561176057600080fd5b6114f7888289016113ea565b60006020828403121561177e57600080fd5b61122282611229565b600181811c9082168061179b57607f821691505b6020821081036117bb57634e487b7160e01b600052602260045260246000fd5b50919050565b634e487b7160e01b600052601160045260246000fd5b8082028115828204841417610355576103556117c1565b80820180821115610355576103556117c1565b634e487b7160e01b600052603260045260246000fd5b600060018201611829576118296117c1565b5060010190565b604081526000611843604083018561164a565b8281036020840152611855818561164a565b95945050505050565b6001600160a01b03868116825285166020820152604081018490526060810183905260a060808201819052600090611898908301846112bb565b979650505050505050565b6000602082840312156118b557600080fd5b81516112228161126f565b6001600160a01b0386811682528516602082015260a0604082018190526000906118ec9083018661164a565b82810360608401526118fe818661164a565b9050828103608084015261191281856112bb565b9897505050505050505056fea26469706673582212209f4d32351f27427fdd3d9c8b59a75d36e96c285c67d4a8e097f6af2443e5092a64736f6c63430008140033a2646970667358221220356ffdf0e24fcdcd57f79782a56122878c4a62b230dfd015ac4515966d6f487864736f6c63430008140033608060405234801561001057600080fd5b50611101806100206000396000f3fe608060405234801561001057600080fd5b50600436106101425760003560e01c80638c1f80df116100b8578063d3a6727b1161007c578063d3a6727b14610271578063d73fe0aa14610284578063e18cb1481461028c578063fcdac49d1461029d578063fd515e38146102b0578063fe3d88bd146102b957600080fd5b80638c1f80df146102255780639736c4341461022d578063978dcce01461023e578063a0852d9114610246578063c884ef831461024e57600080fd5b806348ef55b81161010a57806348ef55b8146101ae57806349590657146101cc5780635c222bad146101d45780636c9c2faf146101f95780637cb6475914610201578063893d20e81461021457600080fd5b8063191fe1ed1461014757806327bf82f41461016a578063297409761461017c57806332c62de314610191578063474f36b414610199575b600080fd5b61015061271081565b60405163ffffffff90911681526020015b60405180910390f35b6007545b604051908152602001610161565b6101846102c1565b6040516101619190610bb4565b60095461016e565b6101ac6101a7366004610c1e565b610353565b005b600b54600160a01b900460ff165b6040519015158152602001610161565b60005461016e565b6005546001600160a01b03165b6040516001600160a01b039091168152602001610161565b60065461016e565b6101ac61020f366004610ca4565b610568565b600b546001600160a01b03166101e1565b6101ac6105c7565b6001546001600160a01b03166101e1565b600a5461016e565b61016e6107b7565b6101bc61025c366004610cbd565b600c6020526000908152604090205460ff1681565b6101bc61027f366004610c1e565b6107db565b60085461016e565b6004546001600160a01b03166101e1565b6101ac6102ab366004610d8d565b610861565b61016e600d5481565b6101846109b4565b6060600380546102d090610e7f565b80601f01602080910402602001604051908101604052809291908181526020018280546102fc90610e7f565b80156103495780601f1061031e57610100808354040283529160200191610349565b820191906000526020600020905b81548152906001019060200180831161032c57829003601f168201915b5050505050905090565b600b54600160a01b900460ff16156103865760405162461bcd60e51b815260040161037d90610eb9565b60405180910390fd5b6009544210156103cf5760405162461bcd60e51b81526020600482015260146024820152731058dd1a5d9a5d1e481b9bdd081cdd185c9d195960621b604482015260640161037d565b600a546103de90610e10610efa565b6009546103eb9190610f11565b42111561040a5760405162461bcd60e51b815260040161037d90610eb9565b6104158383836107db565b6104615760405162461bcd60e51b815260206004820152601d60248201527f596f752063616e6e6f7420776974686472617720746865207072697a65000000604482015260640161037d565b6001600160a01b0383166000908152600c602052604090205460ff16156104c35760405162461bcd60e51b8152602060048201526016602482015275151bdad95b9cc8185b1c9958591e4818db185a5b595960521b604482015260640161037d565b6001600160a01b0383166000908152600c60205260408120805460ff19166001908117909155600d8054919290916104fc908490610f11565b909155505060085460055461051b906001600160a01b031685836109c3565b604080516001600160a01b038616815260208101839052428183015290517e947ef4ebc705be125859711d563ff41e5b4de059732f7a756fd288c6348b269181900360600190a150505050565b6004546001600160a01b031633146105c25760405162461bcd60e51b815260206004820152601e60248201527f4f6e6c7920626f6f6e747953657457686974656c697374416464726573730000604482015260640161037d565b600055565b600b54600160a01b900460ff16156105f15760405162461bcd60e51b815260040161037d90610eb9565b600654600854600d546106049190610efa565b0361066b57600b546001600160a01b031633148061062c57506001546001600160a01b031633145b61063557600080fd5b600b805460ff60a01b1916600160a01b179055600154600754600554610669926001600160a01b03918216929116906109c3565b565b600a5461067a90610e10610efa565b6009546106879190610f11565b421161076857600b546001600160a01b031633146106a457600080fd5b600b805460ff60a01b1916600160a01b1790556001546007546005546106d8926001600160a01b03918216929116906109c3565b6005546040516370a0823160e01b81523060048201526000916001600160a01b0316906370a0823190602401602060405180830381865afa158015610721573d6000803e3d6000fd5b505050506040513d601f19601f820116820180604052508101906107459190610f24565b600b54600554919250610765916001600160a01b039081169116836109c3565b50565b600a5461077790610e10610efa565b6009546107849190610f11565b42111561066957600b546001600160a01b03163314806107ae57506001546001600160a01b031633145b6106a457600080fd5b6000600a54610e106107c99190610efa565b6009546107d69190610f11565b905090565b6040516bffffffffffffffffffffffff19606085901b16602082015260009081906034016040516020818303038152906040528051906020012090506108568484808060200260200160405190810160405280939291908181526020018383602002808284376000920182905250549250859150610a1a9050565b9150505b9392505050565b600b546001600160a01b0316156108b05760405162461bcd60e51b8152602060048201526013602482015272105b1c9958591e481a5b9a5d1a585b1a5e9959606a1b604482015260640161037d565b600b80546001600160a01b038089166001600160a01b031992831617909255600180548e8416908316179055600480548d841690831617905560058054928c1692909116919091179055600061090d8961ffff8a16612710610a30565b610917908a610f3d565b90506109238482610f66565b61092d9082610f3d565b600655600261093c8782610fc8565b5060036109498682610fc8565b506109548482611088565b600855610976876109658684610f66565b6001600160a01b038d1691906109c3565b610980818a610f3d565b60075561099361ffff8416610e10610efa565b61099d9042610f11565b6009555061ffff16600a5550505050505050505050565b6060600280546102d090610e7f565b604080516001600160a01b038416602482015260448082018490528251808303909101815260649091019091526020810180516001600160e01b031663a9059cbb60e01b179052610a15908490610ac2565b505050565b600082610a278584610b39565b14949350505050565b82820281838583041485151702610abb576000198385098181108201900382848609836000038416828511610a6d5763ae47f7026000526004601cfd5b9384900493838211909203600083900383900460010102920304176002600383028118808402820302808402820302808402820302808402820302808402820302808402909103020261085a565b0492915050565b600080602060008451602086016000885af180610ae5576040513d6000823e3d81fd5b50506000513d91508115610afd578060011415610b0a565b6001600160a01b0384163b155b15610b3357604051635274afe760e01b81526001600160a01b038516600482015260240161037d565b50505050565b600081815b8451811015610b7e57610b6a82868381518110610b5d57610b5d61109c565b6020026020010151610b88565b915080610b76816110b2565b915050610b3e565b5090505b92915050565b6000818310610ba457600082815260208490526040902061085a565b5060009182526020526040902090565b600060208083528351808285015260005b81811015610be157858101830151858201604001528201610bc5565b506000604082860101526040601f19601f8301168501019250505092915050565b80356001600160a01b0381168114610c1957600080fd5b919050565b600080600060408486031215610c3357600080fd5b610c3c84610c02565b9250602084013567ffffffffffffffff80821115610c5957600080fd5b818601915086601f830112610c6d57600080fd5b813581811115610c7c57600080fd5b8760208260051b8501011115610c9157600080fd5b6020830194508093505050509250925092565b600060208284031215610cb657600080fd5b5035919050565b600060208284031215610ccf57600080fd5b61085a82610c02565b803561ffff81168114610c1957600080fd5b634e487b7160e01b600052604160045260246000fd5b600082601f830112610d1157600080fd5b813567ffffffffffffffff80821115610d2c57610d2c610cea565b604051601f8301601f19908116603f01168101908282118183101715610d5457610d54610cea565b81604052838152866020858801011115610d6d57600080fd5b836020870160208301376000602085830101528094505050505092915050565b60008060008060008060008060008060006101608c8e031215610daf57600080fd5b610db88c610c02565b9a50610dc660208d01610c02565b9950610dd460408d01610c02565b985060608c01359750610de960808d01610cd8565b9650610df760a08d01610c02565b955067ffffffffffffffff8060c08e01351115610e1357600080fd5b610e238e60c08f01358f01610d00565b95508060e08e01351115610e3657600080fd5b50610e478d60e08e01358e01610d00565b93506101008c01359250610e5e6101208d01610cd8565b9150610e6d6101408d01610cd8565b90509295989b509295989b9093969950565b600181811c90821680610e9357607f821691505b602082108103610eb357634e487b7160e01b600052602260045260246000fd5b50919050565b6020808252601190820152701058dd1a5d9a5d1e48199a5b9a5cda1959607a1b604082015260600190565b634e487b7160e01b600052601160045260246000fd5b8082028115828204841417610b8257610b82610ee4565b80820180821115610b8257610b82610ee4565b600060208284031215610f3657600080fd5b5051919050565b81810381811115610b8257610b82610ee4565b634e487b7160e01b600052601260045260246000fd5b600082610f7557610f75610f50565b500690565b601f821115610a1557600081815260208120601f850160051c81016020861015610fa15750805b601f850160051c820191505b81811015610fc057828155600101610fad565b505050505050565b815167ffffffffffffffff811115610fe257610fe2610cea565b610ff681610ff08454610e7f565b84610f7a565b602080601f83116001811461102b57600084156110135750858301515b600019600386901b1c1916600185901b178555610fc0565b600085815260208120601f198616915b8281101561105a5788860151825594840194600190910190840161103b565b50858210156110785787850151600019600388901b60f8161c191681555b5050505050600190811b01905550565b60008261109757611097610f50565b500490565b634e487b7160e01b600052603260045260246000fd5b6000600182016110c4576110c4610ee4565b506001019056fea26469706673582212209a2109eb355828e420ad604f5d1bfda2cbeb8e2e758610dde470c6937c7875fb64736f6c63430008140033",
    "linkReferences": {}
  },
  "methodIdentifiers": {
    "_activitiesERC1155(uint256)": "465a8f20",
    "_activitiesERC20(uint256)": "5461483a",
    "createActivityERC1155(uint256,string,string,string,uint16,uint16,address)": "370c9828",
    "createActivityERC20(uint256,string,string,uint256,uint16,uint16)": "e4f3f802",
    "getActivitiesERC1155()": "2aaa819a",
    "getActivitiesERC20()": "f21757fa",
    "getActivityERC20()": "7fb430dd",
    "getAsset()": "5c222bad",
    "getBoontySetWhitelist()": "e18cb148",
    "getFees()": "db8d55f1",
    "getFixedFees()": "b34b278a",
    "owner()": "8da5cb5b",
    "renounceOwnership()": "715018a6",
    "setAsset(address)": "d0d552dd",
    "setBoontySetWhitelist(address)": "5aab4fd5",
    "setFees(uint16)": "ca1123c2",
    "setFixedFees(uint256)": "5af4a5e6",
    "transferOwnership(address)": "f2fde38b"
  },
  "id": 50
}